{
  "contractName": "StakerContract",
  "abi": [
    {
      "inputs": [
        {
          "internalType": "contract GalaxyToken",
          "name": "_glxyToken",
          "type": "address"
        },
        {
          "internalType": "contract USDC",
          "name": "_nUSDCToken",
          "type": "address"
        }
      ],
      "payable": false,
      "stateMutability": "nonpayable",
      "type": "constructor"
    },
    {
      "constant": true,
      "inputs": [],
      "name": "USDCToken",
      "outputs": [
        {
          "internalType": "contract USDC",
          "name": "",
          "type": "address"
        }
      ],
      "payable": false,
      "stateMutability": "view",
      "type": "function"
    },
    {
      "constant": true,
      "inputs": [],
      "name": "contract_Owner",
      "outputs": [
        {
          "internalType": "address",
          "name": "",
          "type": "address"
        }
      ],
      "payable": false,
      "stateMutability": "view",
      "type": "function"
    },
    {
      "constant": true,
      "inputs": [
        {
          "internalType": "address",
          "name": "",
          "type": "address"
        }
      ],
      "name": "currentlyStaked",
      "outputs": [
        {
          "internalType": "bool",
          "name": "",
          "type": "bool"
        }
      ],
      "payable": false,
      "stateMutability": "view",
      "type": "function"
    },
    {
      "constant": true,
      "inputs": [],
      "name": "glxyToken",
      "outputs": [
        {
          "internalType": "contract GalaxyToken",
          "name": "",
          "type": "address"
        }
      ],
      "payable": false,
      "stateMutability": "view",
      "type": "function"
    },
    {
      "constant": true,
      "inputs": [],
      "name": "name",
      "outputs": [
        {
          "internalType": "string",
          "name": "",
          "type": "string"
        }
      ],
      "payable": false,
      "stateMutability": "view",
      "type": "function"
    },
    {
      "constant": true,
      "inputs": [
        {
          "internalType": "uint256",
          "name": "",
          "type": "uint256"
        }
      ],
      "name": "stakeUsers",
      "outputs": [
        {
          "internalType": "address",
          "name": "",
          "type": "address"
        }
      ],
      "payable": false,
      "stateMutability": "view",
      "type": "function"
    },
    {
      "constant": true,
      "inputs": [
        {
          "internalType": "address",
          "name": "",
          "type": "address"
        }
      ],
      "name": "stakerBalance",
      "outputs": [
        {
          "internalType": "uint256",
          "name": "",
          "type": "uint256"
        }
      ],
      "payable": false,
      "stateMutability": "view",
      "type": "function"
    },
    {
      "constant": true,
      "inputs": [
        {
          "internalType": "address",
          "name": "",
          "type": "address"
        }
      ],
      "name": "wasStaked",
      "outputs": [
        {
          "internalType": "bool",
          "name": "",
          "type": "bool"
        }
      ],
      "payable": false,
      "stateMutability": "view",
      "type": "function"
    },
    {
      "constant": false,
      "inputs": [
        {
          "internalType": "uint256",
          "name": "_amount",
          "type": "uint256"
        }
      ],
      "name": "FarmTokens",
      "outputs": [],
      "payable": false,
      "stateMutability": "nonpayable",
      "type": "function"
    },
    {
      "constant": false,
      "inputs": [],
      "name": "UnstakeTokens",
      "outputs": [],
      "payable": false,
      "stateMutability": "nonpayable",
      "type": "function"
    },
    {
      "constant": false,
      "inputs": [],
      "name": "distributeTokens",
      "outputs": [],
      "payable": false,
      "stateMutability": "nonpayable",
      "type": "function"
    }
  ],
  "bytecode": "0x60806040526040518060400160405280601181526020017f476c7879205374616b696e67204661726d0000000000000000000000000000008152506000908051906020019061004f929190610164565b5034801561005c57600080fd5b50604051610f7f380380610f7f8339818101604052604081101561007f57600080fd5b81019080805190602001909291908051906020019092919050505081600160006101000a81548173ffffffffffffffffffffffffffffffffffffffff021916908373ffffffffffffffffffffffffffffffffffffffff16021790555080600260006101000a81548173ffffffffffffffffffffffffffffffffffffffff021916908373ffffffffffffffffffffffffffffffffffffffff16021790555033600360006101000a81548173ffffffffffffffffffffffffffffffffffffffff021916908373ffffffffffffffffffffffffffffffffffffffff1602179055505050610209565b828054600181600116156101000203166002900490600052602060002090601f016020900481019282601f106101a557805160ff19168380011785556101d3565b828001600101855582156101d3579182015b828111156101d25782518255916020019190600101906101b7565b5b5090506101e091906101e4565b5090565b61020691905b808211156102025760008160009055506001016101ea565b5090565b90565b610d67806102186000396000f3fe608060405234801561001057600080fd5b50600436106100a95760003560e01c806396bf265c1161007157806396bf265c146102735780639ab1b484146102bd578063a0fa0dab146102c7578063c57db2c014610311578063e86f1b5c1461036d578063eca5b8d314610377576100a9565b806306fdde03146100ae5780630ed66a85146101315780634c34c8de1461015f57806355ec237a146101a957806383bcaa1e14610205575b600080fd5b6100b66103cf565b6040518080602001828103825283818151815260200191508051906020019080838360005b838110156100f65780820151818401526020810190506100db565b50505050905090810190601f1680156101235780820380516001836020036101000a031916815260200191505b509250505060405180910390f35b61015d6004803603602081101561014757600080fd5b810190808035906020019092919050505061046d565b005b6101676107ec565b604051808273ffffffffffffffffffffffffffffffffffffffff1673ffffffffffffffffffffffffffffffffffffffff16815260200191505060405180910390f35b6101eb600480360360208110156101bf57600080fd5b81019080803573ffffffffffffffffffffffffffffffffffffffff169060200190929190505050610812565b604051808215151515815260200191505060405180910390f35b6102316004803603602081101561021b57600080fd5b8101908080359060200190929190505050610832565b604051808273ffffffffffffffffffffffffffffffffffffffff1673ffffffffffffffffffffffffffffffffffffffff16815260200191505060405180910390f35b61027b61086e565b604051808273ffffffffffffffffffffffffffffffffffffffff1673ffffffffffffffffffffffffffffffffffffffff16815260200191505060405180910390f35b6102c5610894565b005b6102cf610a8c565b604051808273ffffffffffffffffffffffffffffffffffffffff1673ffffffffffffffffffffffffffffffffffffffff16815260200191505060405180910390f35b6103536004803603602081101561032757600080fd5b81019080803573ffffffffffffffffffffffffffffffffffffffff169060200190929190505050610ab2565b604051808215151515815260200191505060405180910390f35b610375610ad2565b005b6103b96004803603602081101561038d57600080fd5b81019080803573ffffffffffffffffffffffffffffffffffffffff169060200190929190505050610cf4565b6040518082815260200191505060405180910390f35b60008054600181600116156101000203166002900480601f0160208091040260200160405190810160405280929190818152602001828054600181600116156101000203166002900480156104655780601f1061043a57610100808354040283529160200191610465565b820191906000526020600020905b81548152906001019060200180831161044857829003601f168201915b505050505081565b600081116104e3576040517f08c379a000000000000000000000000000000000000000000000000000000000815260040180806020018281038252601e8152602001807f612062616c616e63652063616e6e6f7420626520657175616c20746f2030000081525060200191505060405180910390fd5b600260009054906101000a900473ffffffffffffffffffffffffffffffffffffffff1673ffffffffffffffffffffffffffffffffffffffff166323b872dd3330846040518463ffffffff1660e01b8152600401808473ffffffffffffffffffffffffffffffffffffffff1673ffffffffffffffffffffffffffffffffffffffff1681526020018373ffffffffffffffffffffffffffffffffffffffff1673ffffffffffffffffffffffffffffffffffffffff1681526020018281526020019350505050602060405180830381600087803b1580156105c057600080fd5b505af11580156105d4573d6000803e3d6000fd5b505050506040513d60208110156105ea57600080fd5b81019080805190602001909291905050505080600560003373ffffffffffffffffffffffffffffffffffffffff1673ffffffffffffffffffffffffffffffffffffffff1681526020019081526020016000205401600560003373ffffffffffffffffffffffffffffffffffffffff1673ffffffffffffffffffffffffffffffffffffffff16815260200190815260200160002081905550600660003373ffffffffffffffffffffffffffffffffffffffff1673ffffffffffffffffffffffffffffffffffffffff16815260200190815260200160002060009054906101000a900460ff166107395760043390806001815401808255809150509060018203906000526020600020016000909192909190916101000a81548173ffffffffffffffffffffffffffffffffffffffff021916908373ffffffffffffffffffffffffffffffffffffffff160217905550505b6001600760003373ffffffffffffffffffffffffffffffffffffffff1673ffffffffffffffffffffffffffffffffffffffff16815260200190815260200160002060006101000a81548160ff0219169083151502179055506001600660003373ffffffffffffffffffffffffffffffffffffffff1673ffffffffffffffffffffffffffffffffffffffff16815260200190815260200160002060006101000a81548160ff02191690831515021790555050565b600260009054906101000a900473ffffffffffffffffffffffffffffffffffffffff1681565b60066020528060005260406000206000915054906101000a900460ff1681565b6004818154811061083f57fe5b906000526020600020016000915054906101000a900473ffffffffffffffffffffffffffffffffffffffff1681565b600160009054906101000a900473ffffffffffffffffffffffffffffffffffffffff1681565b600360009054906101000a900473ffffffffffffffffffffffffffffffffffffffff1673ffffffffffffffffffffffffffffffffffffffff163373ffffffffffffffffffffffffffffffffffffffff16146108ee57600080fd5b60008090505b600480549050811015610a895760006004828154811061091057fe5b9060005260206000200160009054906101000a900473ffffffffffffffffffffffffffffffffffffffff1690506000600a600560008473ffffffffffffffffffffffffffffffffffffffff1673ffffffffffffffffffffffffffffffffffffffff168152602001908152602001600020548161098857fe5b0490506000811115610a7a57600160009054906101000a900473ffffffffffffffffffffffffffffffffffffffff1673ffffffffffffffffffffffffffffffffffffffff1663a9059cbb83836040518363ffffffff1660e01b8152600401808373ffffffffffffffffffffffffffffffffffffffff1673ffffffffffffffffffffffffffffffffffffffff16815260200182815260200192505050602060405180830381600087803b158015610a3d57600080fd5b505af1158015610a51573d6000803e3d6000fd5b505050506040513d6020811015610a6757600080fd5b8101908080519060200190929190505050505b505080806001019150506108f4565b50565b600360009054906101000a900473ffffffffffffffffffffffffffffffffffffffff1681565b60076020528060005260406000206000915054906101000a900460ff1681565b6000600560003373ffffffffffffffffffffffffffffffffffffffff1673ffffffffffffffffffffffffffffffffffffffff16815260200190815260200160002054905060008111610b6f576040517f08c379a0000000000000000000000000000000000000000000000000000000008152600401808060200182810382526026815260200180610d0d6026913960400191505060405180910390fd5b600260009054906101000a900473ffffffffffffffffffffffffffffffffffffffff1673ffffffffffffffffffffffffffffffffffffffff1663a9059cbb33836040518363ffffffff1660e01b8152600401808373ffffffffffffffffffffffffffffffffffffffff1673ffffffffffffffffffffffffffffffffffffffff16815260200182815260200192505050602060405180830381600087803b158015610c1857600080fd5b505af1158015610c2c573d6000803e3d6000fd5b505050506040513d6020811015610c4257600080fd5b8101908080519060200190929190505050506000600560003373ffffffffffffffffffffffffffffffffffffffff1673ffffffffffffffffffffffffffffffffffffffff168152602001908152602001600020819055506000600760003373ffffffffffffffffffffffffffffffffffffffff1673ffffffffffffffffffffffffffffffffffffffff16815260200190815260200160002060006101000a81548160ff02191690831515021790555050565b6005602052806000526040600020600091509050548156fe7374616b696e672062616c616e6365206d7573742062652067726561746572207468616e2030a265627a7a723158202cdbcec726171106d02ad781baf2e0a4358ab57cb12580e64fbeeef376a3911764736f6c63430005100032",
  "source": "//SPDX-License-Identifier: MIT\npragma solidity >=0.5.0 <0.7.0;\n\nimport \"./USDC.sol\";\nimport \"./GalaxyToken.sol\";\n\ncontract StakerContract {\n    //Start\n    string public name = \"Glxy Staking Farm\";\n    //create state variables of type contract that can be used in the constructor.\n    GalaxyToken public glxyToken;\n    USDC public USDCToken;\n    //The owner of the contract i.e deployer address\n    address public contract_Owner;\n\n    address[] public stakeUsers;\n    mapping(address => uint256) public stakerBalance;\n    mapping(address => bool) public wasStaked;\n    mapping(address => bool) public currentlyStaked;\n\n    constructor(GalaxyToken _glxyToken, USDC _nUSDCToken) public {\n        //special function that runs once when the smart contract is first deployed\n        glxyToken = _glxyToken;\n        USDCToken = _nUSDCToken;\n        contract_Owner = msg.sender;\n    }\n\n    //Functions to build\n    //1. Stake tokens (allow the user to insert the tokens)\n    function FarmTokens(uint256 _amount) public {\n        require(_amount > 0, \"a balance cannot be equal to 0\");\n        //Allow the user to transfer nUSDC tokens into the contract\n        USDCToken.transferFrom(msg.sender, address(this), _amount);\n\n        //Update staking Balance for user\n        stakerBalance[msg.sender] = stakerBalance[msg.sender] + _amount;\n\n        //array to count stakers in if they are stakers array.\n        if (!wasStaked[msg.sender]) {\n            stakeUsers.push(msg.sender);\n        }\n\n        //Update staking status of user\n        currentlyStaked[msg.sender] = true;\n        wasStaked[msg.sender] = true;\n    }\n\n    //Unstake tokens (allow user to pull staked tokens out of the contract)\n    function UnstakeTokens() public {\n        uint256 user_Balance = stakerBalance[msg.sender];\n        require(user_Balance > 0, \"staking balance must be greater than 0\");\n        //give the user their staked tokens back stealing is bad =D and reset the balance to 0\n        USDCToken.transfer(msg.sender, user_Balance);\n        stakerBalance[msg.sender] = 0;\n        currentlyStaked[msg.sender] = false;\n    }\n\n    //Distrabution (Give the user native GLXY based off of a APY inorder to allow user to farm native tokens with staked tokens)\n    function distributeTokens() public {\n        //make sure the only person that can call this function is the contract owner\n        require(msg.sender == contract_Owner);\n\n        //Give Galaxy tokens to anyone that is currently staked in our contract.\n        for (uint256 i = 0; i < stakeUsers.length; i++) {\n            address recipient = stakeUsers[i];\n            uint256 user_Balance = stakerBalance[recipient]/10;\n\n            //make sure user balance exists before we send coins\n            if (user_Balance > 0) {\n                glxyToken.transfer(recipient, user_Balance);\n            }\n        }\n    }\n}\n",
  "sourcePath": "C:/Users/Sean/Desktop/glxytoken/contracts/StakerContract.sol",
  "compiler": {
    "name": "solc",
    "version": "0.5.16+commit.9c3226ce.Emscripten.clang"
  },
  "schemaVersion": "3.2.3",
  "updatedAt": "2020-11-19T19:35:45.295Z",
  "networkType": "ethereum",
  "devdoc": {
    "methods": {}
  },
  "userdoc": {
    "methods": {}
  }
}