{
  "contractName": "USDC",
  "abi": [
    {
      "inputs": [],
      "payable": false,
      "stateMutability": "nonpayable",
      "type": "constructor"
    },
    {
      "anonymous": false,
      "inputs": [
        {
          "indexed": true,
          "internalType": "address",
          "name": "Owner",
          "type": "address"
        },
        {
          "indexed": true,
          "internalType": "address",
          "name": "Spender",
          "type": "address"
        },
        {
          "indexed": false,
          "internalType": "uint256",
          "name": "Value",
          "type": "uint256"
        }
      ],
      "name": "Approval",
      "type": "event"
    },
    {
      "anonymous": false,
      "inputs": [
        {
          "indexed": true,
          "internalType": "address",
          "name": "From",
          "type": "address"
        },
        {
          "indexed": true,
          "internalType": "address",
          "name": "To",
          "type": "address"
        },
        {
          "indexed": false,
          "internalType": "uint256",
          "name": "Value",
          "type": "uint256"
        }
      ],
      "name": "Transfer",
      "type": "event"
    },
    {
      "constant": true,
      "inputs": [
        {
          "internalType": "address",
          "name": "",
          "type": "address"
        },
        {
          "internalType": "address",
          "name": "",
          "type": "address"
        }
      ],
      "name": "Amount",
      "outputs": [
        {
          "internalType": "uint256",
          "name": "",
          "type": "uint256"
        }
      ],
      "payable": false,
      "stateMutability": "view",
      "type": "function"
    },
    {
      "constant": true,
      "inputs": [
        {
          "internalType": "address",
          "name": "",
          "type": "address"
        }
      ],
      "name": "Balance",
      "outputs": [
        {
          "internalType": "uint256",
          "name": "",
          "type": "uint256"
        }
      ],
      "payable": false,
      "stateMutability": "view",
      "type": "function"
    },
    {
      "constant": true,
      "inputs": [],
      "name": "decimals",
      "outputs": [
        {
          "internalType": "uint8",
          "name": "",
          "type": "uint8"
        }
      ],
      "payable": false,
      "stateMutability": "view",
      "type": "function"
    },
    {
      "constant": true,
      "inputs": [],
      "name": "name",
      "outputs": [
        {
          "internalType": "string",
          "name": "",
          "type": "string"
        }
      ],
      "payable": false,
      "stateMutability": "view",
      "type": "function"
    },
    {
      "constant": true,
      "inputs": [],
      "name": "symbol",
      "outputs": [
        {
          "internalType": "string",
          "name": "",
          "type": "string"
        }
      ],
      "payable": false,
      "stateMutability": "view",
      "type": "function"
    },
    {
      "constant": true,
      "inputs": [],
      "name": "totalSupply",
      "outputs": [
        {
          "internalType": "uint256",
          "name": "",
          "type": "uint256"
        }
      ],
      "payable": false,
      "stateMutability": "view",
      "type": "function"
    },
    {
      "constant": false,
      "inputs": [
        {
          "internalType": "address",
          "name": "To",
          "type": "address"
        },
        {
          "internalType": "uint256",
          "name": "Value",
          "type": "uint256"
        }
      ],
      "name": "transfer",
      "outputs": [
        {
          "internalType": "bool",
          "name": "success",
          "type": "bool"
        }
      ],
      "payable": false,
      "stateMutability": "nonpayable",
      "type": "function"
    },
    {
      "constant": false,
      "inputs": [
        {
          "internalType": "address",
          "name": "Spender",
          "type": "address"
        },
        {
          "internalType": "uint256",
          "name": "Value",
          "type": "uint256"
        }
      ],
      "name": "approve",
      "outputs": [
        {
          "internalType": "bool",
          "name": "success",
          "type": "bool"
        }
      ],
      "payable": false,
      "stateMutability": "nonpayable",
      "type": "function"
    },
    {
      "constant": false,
      "inputs": [
        {
          "internalType": "address",
          "name": "From",
          "type": "address"
        },
        {
          "internalType": "address",
          "name": "To",
          "type": "address"
        },
        {
          "internalType": "uint256",
          "name": "Value",
          "type": "uint256"
        }
      ],
      "name": "transferFrom",
      "outputs": [
        {
          "internalType": "bool",
          "name": "success",
          "type": "bool"
        }
      ],
      "payable": false,
      "stateMutability": "nonpayable",
      "type": "function"
    }
  ],
  "bytecode": "0x60806040526040518060400160405280600581526020017f6e555344430000000000000000000000000000000000000000000000000000008152506000908051906020019061004f92919061011e565b506040518060400160405280600581526020017f6e555344430000000000000000000000000000000000000000000000000000008152506001908051906020019061009b92919061011e565b5069152d02c7e14af68000006002556012600360006101000a81548160ff021916908360ff1602179055503480156100d257600080fd5b50600254600460003373ffffffffffffffffffffffffffffffffffffffff1673ffffffffffffffffffffffffffffffffffffffff168152602001908152602001600020819055506101c3565b828054600181600116156101000203166002900490600052602060002090601f016020900481019282601f1061015f57805160ff191683800117855561018d565b8280016001018555821561018d579182015b8281111561018c578251825591602001919060010190610171565b5b50905061019a919061019e565b5090565b6101c091905b808211156101bc5760008160009055506001016101a4565b5090565b90565b610a7d806101d26000396000f3fe608060405234801561001057600080fd5b50600436106100935760003560e01c8063239fcf0f11610066578063239fcf0f1461021757806323b872dd1461026f578063313ce567146102f557806395d89b4114610319578063a9059cbb1461039c57610093565b806306fdde0314610098578063095ea7b31461011b57806318160ddd14610181578063199bdbc11461019f575b600080fd5b6100a0610402565b6040518080602001828103825283818151815260200191508051906020019080838360005b838110156100e05780820151818401526020810190506100c5565b50505050905090810190601f16801561010d5780820380516001836020036101000a031916815260200191505b509250505060405180910390f35b6101676004803603604081101561013157600080fd5b81019080803573ffffffffffffffffffffffffffffffffffffffff169060200190929190803590602001909291905050506104a0565b604051808215151515815260200191505060405180910390f35b610189610592565b6040518082815260200191505060405180910390f35b610201600480360360408110156101b557600080fd5b81019080803573ffffffffffffffffffffffffffffffffffffffff169060200190929190803573ffffffffffffffffffffffffffffffffffffffff169060200190929190505050610598565b6040518082815260200191505060405180910390f35b6102596004803603602081101561022d57600080fd5b81019080803573ffffffffffffffffffffffffffffffffffffffff1690602001909291905050506105bd565b6040518082815260200191505060405180910390f35b6102db6004803603606081101561028557600080fd5b81019080803573ffffffffffffffffffffffffffffffffffffffff169060200190929190803573ffffffffffffffffffffffffffffffffffffffff169060200190929190803590602001909291905050506105d5565b604051808215151515815260200191505060405180910390f35b6102fd610840565b604051808260ff1660ff16815260200191505060405180910390f35b610321610853565b6040518080602001828103825283818151815260200191508051906020019080838360005b83811015610361578082015181840152602081019050610346565b50505050905090810190601f16801561038e5780820380516001836020036101000a031916815260200191505b509250505060405180910390f35b6103e8600480360360408110156103b257600080fd5b81019080803573ffffffffffffffffffffffffffffffffffffffff169060200190929190803590602001909291905050506108f1565b604051808215151515815260200191505060405180910390f35b60008054600181600116156101000203166002900480601f0160208091040260200160405190810160405280929190818152602001828054600181600116156101000203166002900480156104985780601f1061046d57610100808354040283529160200191610498565b820191906000526020600020905b81548152906001019060200180831161047b57829003601f168201915b505050505081565b600081600560003373ffffffffffffffffffffffffffffffffffffffff1673ffffffffffffffffffffffffffffffffffffffff16815260200190815260200160002060008573ffffffffffffffffffffffffffffffffffffffff1673ffffffffffffffffffffffffffffffffffffffff168152602001908152602001600020819055508273ffffffffffffffffffffffffffffffffffffffff163373ffffffffffffffffffffffffffffffffffffffff167f8c5be1e5ebec7d5bd14f71427d1e84f3dd0314c0f7b2291e5b200ac8c7c3b925846040518082815260200191505060405180910390a36001905092915050565b60025481565b6005602052816000526040600020602052806000526040600020600091509150505481565b60046020528060005260406000206000915090505481565b6000600460008573ffffffffffffffffffffffffffffffffffffffff1673ffffffffffffffffffffffffffffffffffffffff1681526020019081526020016000205482111561062357600080fd5b600560008573ffffffffffffffffffffffffffffffffffffffff1673ffffffffffffffffffffffffffffffffffffffff16815260200190815260200160002060003373ffffffffffffffffffffffffffffffffffffffff1673ffffffffffffffffffffffffffffffffffffffff168152602001908152602001600020548211156106ac57600080fd5b81600460008673ffffffffffffffffffffffffffffffffffffffff1673ffffffffffffffffffffffffffffffffffffffff1681526020019081526020016000206000828254039250508190555081600460008573ffffffffffffffffffffffffffffffffffffffff1673ffffffffffffffffffffffffffffffffffffffff1681526020019081526020016000206000828254019250508190555081600560008673ffffffffffffffffffffffffffffffffffffffff1673ffffffffffffffffffffffffffffffffffffffff16815260200190815260200160002060003373ffffffffffffffffffffffffffffffffffffffff1673ffffffffffffffffffffffffffffffffffffffff168152602001908152602001600020600082825403925050819055508273ffffffffffffffffffffffffffffffffffffffff168473ffffffffffffffffffffffffffffffffffffffff167fddf252ad1be2c89b69c2b068fc378daa952ba7f163c4a11628f55a4df523b3ef846040518082815260200191505060405180910390a3600190509392505050565b600360009054906101000a900460ff1681565b60018054600181600116156101000203166002900480601f0160208091040260200160405190810160405280929190818152602001828054600181600116156101000203166002900480156108e95780601f106108be576101008083540402835291602001916108e9565b820191906000526020600020905b8154815290600101906020018083116108cc57829003601f168201915b505050505081565b600081600460003373ffffffffffffffffffffffffffffffffffffffff1673ffffffffffffffffffffffffffffffffffffffff16815260200190815260200160002054101561093f57600080fd5b81600460003373ffffffffffffffffffffffffffffffffffffffff1673ffffffffffffffffffffffffffffffffffffffff1681526020019081526020016000206000828254039250508190555081600460008573ffffffffffffffffffffffffffffffffffffffff1673ffffffffffffffffffffffffffffffffffffffff168152602001908152602001600020600082825401925050819055508273ffffffffffffffffffffffffffffffffffffffff163373ffffffffffffffffffffffffffffffffffffffff167fddf252ad1be2c89b69c2b068fc378daa952ba7f163c4a11628f55a4df523b3ef846040518082815260200191505060405180910390a3600190509291505056fea265627a7a72315820f6ea366fd5957fac03c96fcbb8291afe8c3934496d0492ed0b5b6e156e55d90e64736f6c63430005100032",
  "source": "//SPDX-License-Identifier: MIT\npragma solidity >=0.5.0 <0.7.0;\n\ncontract USDC {\n    string public name = \"nUSDC\"; // Name of the token using fake money\n    string public symbol = \"nUSDC\"; // Token Symbol Will be displayed as nUSDC when token is deployed\n    uint256 public totalSupply = 100000000000000000000000; // Token Supply is 1 Billion\n    uint8 public decimals = 18; // this should be default for all erc20 tokens\n\n    //Transfers _value amount of tokens to address _to, and MUST fire the Transfer event.\n    //The function SHOULD throw if the message caller's account balance does not have enough tokens to spend.\n    event Transfer(address indexed From, address indexed To, uint256 Value);\n\n    // to withdraw From your account multiple times, up to the Value amount.\n    // If this function is called again it overwrites the current allowance with Value\n    event Approval(\n        address indexed Owner,\n        address indexed Spender,\n        uint256 Value\n    );\n\n    // This creates an array with all balances\n    mapping(address => uint256) public Balance;\n    mapping(address => mapping(address => uint256)) public Amount;\n\n    constructor() public {\n        Balance[msg.sender] = totalSupply;\n    }\n\n    //Transfers Value amount of tokens to address To, and MUST fire the Transfer event. The function SHOULD throw if the message caller's account balance does not have enough tokens to spend.\n    function transfer(address To, uint256 Value) public returns (bool success) {\n        require(Balance[msg.sender] >= Value);\n        Balance[msg.sender] -= Value;\n        Balance[To] += Value;\n        emit Transfer(msg.sender, To, Value); //emmision of transfer event\n        return true;\n    }\n\n    //Sets amount as the allowance of spender over the caller’s tokens.\n    function approve(address Spender, uint256 Value)\n        public\n        returns (bool success)\n    {\n        Amount[msg.sender][Spender] = Value;\n        emit Approval(msg.sender, Spender, Value); //emmision of Approval event\n        return true;\n    }\n\n    //Moves amount tokens from sender to recipient using the allowance mechanism. amount is then deducted from the caller’s allowance.\n    function transferFrom(\n        address From,\n        address To,\n        uint256 Value\n    ) public returns (bool success) {\n        require(Value <= Balance[From]);\n        require(Value <= Amount[From][msg.sender]);\n        Balance[From] -= Value;\n        Balance[To] += Value;\n        Amount[From][msg.sender] -= Value;\n        emit Transfer(From, To, Value); //emmision of transfer event\n        return true;\n    }\n}\n",
  "sourcePath": "C:\\Users\\Sean\\Desktop\\glxytoken\\contracts\\USDC.sol",
  "compiler": {
    "name": "solc",
    "version": "0.5.16+commit.9c3226ce.Emscripten.clang"
  },
  "schemaVersion": "3.2.3",
  "updatedAt": "2020-11-19T19:46:40.855Z",
  "devdoc": {
    "methods": {}
  },
  "userdoc": {
    "methods": {}
  }
}